:020000040800F2
:10000000902D00209D010008AB320008AF260008AB
:10001000A9320008E30E000859370008000000006C
:10002000000000000000000000000000AF320008E7
:10003000E50E000800000000AD320008B1320008F3
:10004000B7010008B7010008B7010008B7010008B0
:10005000B7010008B7010008B7010008B7010008A0
:10006000B7010008B7010008B7010008B701000890
:10007000B7010008B7010008B7010008B701000880
:10008000B7010008B7010008B7010008B701000870
:10009000B7010008B7010008B7010008B701000860
:1000A000B7010008B7010008B7010008B701000850
:1000B000B7010008B7010008B7010008BD26000815
:1000C000B1260008B7010008B7010008B701000811
:1000D000B7010008B7010008413700084D37000894
:1000E000B7010008B7010008B7010008B701000810
:1000F000B7010008B7010008B7010008B701000800
:10010000B7010008B7010008B7010008B7010008EF
:10011000B7010008B7010008B7010008B7010008DF
:10012000B7010008B7010008B7010008B7010008CF
:10013000B7010008B7010008B7010008B7010008BF
:10014000B7010008B7010008B7010008B7010008AF
:10015000B7010008B7010008B7010008B70100089F
:10016000B7010008B7010008B7010008B70100088F
:10017000B7010008B7010008B7010008000000003F
:10018000B7010008B7010008DFF80CD000F04CFC04
:1001900000480047355A0008902D00200648804747
:1001A00006480047FEE7FEE7FEE7FEE7FEE7FEE75C
:1001B000FEE7FEE7FEE7FEE7B5320008890100082A
:1001C0002DE9F05F0546002092469B46884606468C
:1001D000814640241BE0284641464746224600F01F
:1001E0006EF953465A46C01A914110D3114618462B
:1001F000224600F055F92D1A67EB01084F462246BA
:100200000120002100F04CF917EB00094E41201E9F
:10021000A4F10104DFDC484631462A464346BDE8E6
:10022000F09F0000004870472C64000810B5044699
:10023000FFF7F8FF0068005D00F0010010BD40EA24
:1002400001039B0703D009E008C9121F08C0042A54
:10025000FAD203E011F8013B00F8013B521EF9D23B
:100260007047D2B201E000F8012B491EFBD2704763
:100270000022F6E710B513460A4604461946FFF772
:10028000F0FF204610BD30B505462A460B4612F851
:10029000010B13F8014B08B1A042F8D01CB10028A3
:1002A00002D06D1CF1E7284630BDCAB2401E10F8DE
:1002B000011F8A4202D00029F9D100207047421C58
:1002C00010F8011B0029FBD1801A704770B5064653
:1002D00004F068FE046805460A220021304600F05A
:1002E0004DF92C6070BD2DE9FE4F81EA030404F046
:1002F000004421F0004100944FF0000B23F0004334
:1003000050EA01045ED052EA03045BD0C3F30A54FE
:10031000C1F30A552C44A4F2F3340194A0FB025417
:10032000C1F3130141F48011C3F3130343F48013A9
:1003300001FB024400FB034E840A970A44EA8154FD
:1003400047EA8357A4FB076802958D0A05FB0785DA
:100350004FEA932C04FB0C542705029D4FEA0658E4
:1003600047EA1637B5EB08056EEB070C870E920EC1
:1003700047EA811742EA8312A7FB0201B6EB0B01A1
:1003800064EB00042B0D43EA0C335E1844EB1C5065
:10039000DA465146E7FB0201C5F313044FEA0B337B
:1003A00043EA14534FEA0432019C43EA0603A4F1E2
:1003B0000C040294009CCDE900B400F05DF903B098
:1003C000BDE8F08F00200146F9E70EB540F2334159
:1003D00002910021CDE900110A460B4600F04CF9CC
:1003E00003B000BDC1F30A5210B5C1F3130140F2CE
:1003F000FF3341F480119A4201DA002010BD40F22F
:1004000033439A42A2F2334203DC524200F057F8DF
:1004100010BD904010BD00F0004230F000400AD006
:10042000C10D01F56071C0F3160042EA0151C20826
:1004300040071143704700200146704701F0004318
:1004400030B421F0004150EA010206D00A0DA2F5B5
:100450006072C1F31301002A02DC30BC0020704737
:10046000440F44EAC104C100E01830BC00EBC250A4
:1004700000F0BCB830B50B46014600202022012414
:1004800009E021FA02F59D4205D303FA02F5491B62
:1004900004FA02F52844151EA2F10102F1DC30BD78
:1004A000202A04DB203A00FA02F100207047914034
:1004B000C2F1200320FA03F3194390407047202A29
:1004C00004DB203A21FA02F00021704721FA02F3FE
:1004D000D040C2F120029140084319467047000005
:1004E0000FB4002300B589B00CA900910B996FF0EF
:1004F0000042CB601E4B06931E4B07930423CDE9AD
:1005000001321D4A089202466B46002000F044FB6F
:1005100009B05DF814FB70B586B006464FF0FF30A9
:100520000091CDE90101002015460C4604903246A9
:10053000694604A8FFF7D4FF02460498211825B1A4
:1005400008B1084600E020462860049800280DD035
:10055000002A02DD0098884208D0081B0094CDE9EB
:1005600001043246694604A8FFF7BAFF06B070BD21
:10057000D10D0008EF0D00082D0200082DE9F0470D
:1005800091460F4680460446002614F8015B2DB1C3
:10059000FFF748FE0068405DC007F6D12B2D02D062
:1005A0002D2D18D0641E4A463946204600F030FCF6
:1005B00027B13968A14201D1C7F8008071054FF019
:1005C00002040BD54042002803DD04F0EBFC04607C
:1005D000A007BDE8F08746F48066E4E70028F8DA73
:1005E00004F0E0FC04606FF00040F2E70029A8BFCF
:1005F0007047401C490008BF20F00100704710B44C
:10060000B0FA80FC00FA0CF050EA010404BF10BC00
:10061000704749B1CCF1200421FA04F411FA0CF12D
:1006200018BF012121430843A3EB0C01CB1D4FEA66
:1006300000614FEA102042BF002010BC704700EB61
:10064000C35010440029A4BF10BC7047401C49008F
:1006500008BF20F0010010BC704710B5141E73F1E4
:10066000000408DA401C41F1000192185B411A4372
:1006700001D120F0010010BD2DE9F04D92469B46BE
:1006800011B1B1FA81F202E0B0FA80F22032904664
:10069000FFF706FF04460F4640EA0A0041EA0B0155
:1006A00053465A46084313D0114653EA010019D065
:1006B000C8F140025046FFF702FF05460E4650467D
:1006C00059464246FFF7ECFE084305D0012004E0FE
:1006D00020463946BDE8F08D0020054346EAE07625
:1006E0002C4337430A986305E40AA0EB0800002274
:1006F000FD0A44EA47540A3002D500200146E9E7E2
:10070000010510196941DDE9084500196941BDE895
:10071000F04DA2E72DE9FE4F804681EA0300C00FAD
:100720000C46009021F0004123F00045B8EB020098
:10073000A94105D24046214690461C460B4602463A
:1007400023F00040104347D0270DC7F30A00C3F33E
:100750000A510290401A019040286BDAC3F313004B
:1007600040F4801B0098924620B10023D2EB030A8C
:1007700063EB0B0B01985946C0F140025046FFF75E
:100780008FFE06460D4650465946019A00F05EF926
:1007900010EB08006141002487EA115284EAE773F4
:1007A0001A4340D0009A62B3019A012A4FEA0752D5
:1007B00015DC001B61EB02014FF0004202EA075218
:1007C000CDE90042001C41F5801132462B46FFF76F
:1007D00053FF03B0BDE8F08F40462146F9E7001B08
:1007E00061EB0201001C41F5801300185B412018E9
:1007F000A2F5001747EB030140EAD570B6196D4129
:1008000011E06D084FEA360645EAC0754FEA075217
:10081000001B61EB0201001C41F5801149084FEA01
:1008200030000019514132462B4603B0BDE8F04F6D
:10083000FFF713BF0098012240000023D0EB020213
:1008400063EBE073009821464FEAE074B8EB0000D8
:1008500061EB0401E9E783F000435BE781F00041CD
:1008600058E72DE9F04D81EA030404F0004B21F034
:10087000004514464FF0000A23F0004150EA0502FB
:1008800020D054EA01021DD0C5F30A570246C5F331
:100890001303C1F31300C1F30A5640F4801543F467
:1008A0008013A7EB0608101BD64608F2FD3873EB41
:1008B000050002D308F1010801E092185B41B8F18C
:1008C000000F03DA00200146BDE8F08D00204FF450
:1008D0008011064684460EE0171B73EB050705D30F
:1008E000121B63EB050306434CEA010C49084FEA6F
:1008F000300092185B4150EA0107EDD152EA030043
:1009000012D082EA040083EA0501084305D0101BD7
:10091000AB4106D20122002306E000224FF0004343
:1009200002E06FF0010253101AEB06004CEB085185
:1009300010EB0A0041EB0B01BDE8F04DFFF78DBE57
:100940002DE9FE4FC3F30A5701F000450024C1F31F
:100950000A56C3F31303C1F3130143F4801312EBDC
:10096000020AA64641F48011009543EB030CA7F15F
:10097000010B16E0B0EB0A0061EB0C01071E71F1F0
:10098000000707DA4FF00008D0EB080085F00045BB
:1009900068EB0101171A73EB0107EBD3761E001801
:1009A00049415E45F6DA50EA010209D0CDE900E599
:1009B000002213460296FFF75FFE03B0BDE8F08FFA
:1009C00020460099F9E7C1F30A52C1F3130140F23E
:1009D000FF3341F480119A4202DA00200146704749
:1009E00040F233439A42A2F2334202DC5242FFF712
:1009F00066BDFFF755BD000030B5041E71F100045F
:100A000004DB4FF00044404264EB0101141E73F11B
:100A1000000405DB1C464FF00043524263EB040325
:100A2000994208BF904230BD064C074D06E0E06891
:100A300040F0010394E8070098471034AC42F6D325
:100A4000FFF7A6FB3064000850640008202A06DB8C
:100A5000CB17203A41FA02F043EAE07306E041FA8C
:100A600002F3D040C2F1200291400843194670477A
:100A70002DE9FF4F087883B09946FF2805D0491C1F
:100A80002D2804D00024002008E000200BE00124E1
:100A9000F9E700EB800003EB4000491C0B78FF2BCB
:100AA000F7D104B1404200230293147819461D4641
:100AB0002D2C01D02B2C04D1521C2D2C13D0002412
:100AC0000294AA461478FF2C0FD00A25A3FB0578C0
:100AD00001FB05814FF0000C03FB0C11521CE319C4
:100AE0004AEB0101EEE70124EAE7814453EA010001
:100AF00002D019F5C87F06DA03980021C0E9001179
:100B000007B0BDE8F08F0025AE4E2F46DFF8B88263
:100B1000184600F0DAF9CDE90001B9F1000002DA77
:100B2000C9F1000400E004460023A74A1AEB030BB6
:100B300042EB045A12E0E00707D02A463346384613
:100B40004146FFF7D0FB074688462A463346104603
:100B50001946FFF7C8FB05460E466410002CEAD183
:100B6000DDE90001B9F1000F5A46534606DAFFF7F6
:100B700078FE3A464346FFF774FE05E0FFF7B3FB05
:100B80003A464346FFF7AFFB029A0AB181F00041B3
:100B9000039AC2E90001B3E72DE9FF4F1F468DB06C
:100BA000D7E901464FF0FF382E2045464FF00009A7
:100BB0000B90B9696D1C0E988847396A8246884740
:100BC0000028F6D1BAF1FF3F0AD024F4D064002EF9
:100BD00011DDBAF12B0F08D0BAF12D0F0BD102E0C5
:100BE000404611B08DE744F48064B9696D1C0E98DD
:100BF00088478246761E6946600501D52D2000E0B3
:100C00002B208DF8000001F1010B0DF1200809E007
:100C1000B9696D1C0E98884782460F9844F4007499
:100C2000761E0560002E02DDBAF1300FF0D00B9970
:100C30008A453ED144F0800406E00F99681CA9F172
:100C4000010944F400740860B9696D1C761E0E98A1
:100C5000884782463028F0D02BE00B998A4505D191
:100C6000200603D444F08004761E18E0504604F0B9
:100C70002DFB08B30DF11301761E44F400748B456F
:100C800008D2AAF130000BF8010B200607D5A9F114
:100C9000010003E0200602D409F101008146A0050D
:100CA00002D50F99681C0860B9696D1C0E988847B9
:100CB0008246002ED1DC53E0002E51DDBAF1650FE3
:100CC00002D0BAF1450F4BD1A00549D5B9696D1CC9
:100CD00024F44074761E0E9888478246002E0CDD60
:100CE0002B2804D0BAF12D0F07D144F48074B969D0
:100CF0006D1C0E9888478246761EE00501D52D2191
:100D000000E02B2108F8011BCDF82C8021E00DF12B
:100D10002901761E44F4007488450CD2AAF13000F3
:100D200010F0FF0088F8000002D10B99884509D91E
:100D300008F1010806E0E00501D5244801E042F28F
:100D40000F708146B9696D1C0E98884782460F98CE
:100D50000560002E04DD504604F0B8FA0028D6D114
:100D6000F9690E988847FF208BF8000088F800008A
:100D70000020069007904B466A4608A906A8FFF790
:100D800077FEA00502D46FF001002AE714F0240FCB
:100D90000AD0E00714D1DDE906123868031D3B6074
:100DA0000068C0E900120BE0DDE90601FFF746FB31
:100DB0000146E00704D13868021D3A60006801600E
:100DC00028460EE7000014400000F03FF1D8FFFF76
:100DD000426842B1016811F8013B23B1521EC0E9DB
:100DE0000012184670470121C160881E7047426892
:100DF0005AB1C368016843B983688B4205D0491E64
:100E0000521CC0E90012002070474FF0FF307047BD
:100E10002DE9F05F82460078002715468B460AF1DF
:100E20000104B946302801D09DB113E014F8010B3C
:100E30000127782803D0582801D045B10AE00DB128
:100E4000102D07D10027102514F8010B02E008250A
:100E500000E00A250026B0460EE005FB080005FB71
:100E600006F1012701EB10461FFA80F8B6F5803F26
:100E700000D3B94614F8010B294600F018F80028F1
:100E8000EBDABBF1000F05D00FB1641E00E0544651
:100E9000CBF80040B9F1000F06D004F083F802212E
:100EA0000160C81EBDE8F09F48EA0640FAE73A280C
:100EB00000D2303820F02002412A01D3A2F13700BD
:100EC000884201D34FF0FF3070470EB540F23342F5
:100ED00002920022CDE900221346FFF7CDFB03B0BA
:100EE00000BDFEE7704790F83510022903D080213D
:100EF000416501207047052180F8351000680168C0
:100F000021F0010101600020704790F83500704722
:100F100070B5044600F0ECF80546601C02D00448A9
:100F20000078044400F0E4F8401BA042FAD370BDFE
:100F3000280000202DE9F84FDFF87CB100224FF0A7
:100F400001084FF0030A4FF00F090BF1040E00BF28
:100F50000B6808FA02F42340A3426ED14D68022DBB
:100F600001D0122D0ED1D50800EB850CDCF82050F5
:100F70005607F70E09FA07F6B5430E69BE402E4331
:100F8000CCF82060066855000F790AFA05FC07F0D6
:100F9000030726EA0C06AF40374307604E68012E70
:100FA00005D0022E03D0112E01D0122E0ED186684C
:100FB000CF6826EA0C06AF40374387604668A643F1
:100FC0000C79C4F30014944034434460C6688C68C0
:100FD00026EA0C06AC403443C4604C68E40065D596
:100FE000364C256845F480452560246822F00305C9
:100FF00004F480440094324C2E19D6F80848950722
:101000002F0F09FA07F5AC432E4DA84201D1002558
:1010100024E02D4DA84201D101251FE02B4DA8420F
:1010200001D102251AE02A4DA84201D1032515E07D
:10103000284DA84202D1042510E037E0264DA842F1
:1010400001D105250AE0254DA84201D1062505E07C
:10105000234DA84201D1072500E00825BD402543C6
:10106000C6F80858DBF800405D464E689C43F6031E
:1010700000D51C432C60DEF8004075464E689C434A
:10108000B60300D51C432C600B4D08352C684E6808
:101090009C43F60200D51C432C60074D0C352C6890
:1010A0004E689C43B60200D51C432C60521C102A8B
:1010B000FFF44EAFBDE8F88F003C014044380240D9
:1010C00000300140000002400004024000080240DD
:1010D000000C0240001002400014024000180240C0
:1010E000001C02400AB1816170470904FBE700005F
:1010F0000148806870470000280000207047704752
:101100002DE9F04104460068416946680025CF4357
:10111000F90506D4F143C90503D46FF480710125A4
:101120004161B80508D4F043C00505D421686FF4C7
:10113000007045F002054861780527D4F043C005EA
:1011400024D494F83E30628D94F83D00216B202B1E
:1011500008D13AB9212810D029280ED0282801D149
:1011600021290AD021686FF48060486194F83E001C
:1011700045F00405102804D008E0204601F094FE54
:1011800004E02068016841F400710160380508D46A
:10119000F043C00505D421686FF4006045F00805F0
:1011A0004861002D07D0206C284320642046BDE80C
:1011B000F04101F0C9BABDE8F0812DE9F0410268C3
:1011C00000245168C56A90F83E3090F83D60102BBD
:1011D0001CD0402B1AD0036C002B7ED053694FF0EB
:1011E0002805DB439F0779D4CF43BF0576D4016C34
:1011F00001B1946990F83D3000219D430B467FD0AA
:10120000C91E516180F83C30BDE8F0819469536992
:101210004FF42A07DB435FEAC37C4FF02A4604D031
:10122000BD42F1D0B542EFD010E0CD43AD050DD4B5
:10123000C16AB94201D1012103E0C16AB14201D1C1
:101240000821C162BDE8F04101F0E6BD1D0716D4DA
:10125000CD43AD0513D4416CC9B21161416B11B9D5
:10126000826B002AD0D0C96B19B9816BC96B002978
:10127000CAD00068416841F400614160C4E79D073D
:1012800006D4CD43AD0503D4BDE8F04101F038BD2F
:10129000E443526864074FEA025215D4002AB3DBD4
:1012A0001A0608D4CA43520505D45A0705D5BDE825
:1012B000F04101F0A3BC5A07A6D4C9438905A3D4C1
:1012C000BDE8F04101F058BC002A9DDB5A060CD461
:1012D000CA43520509D45A0702E00FE023E00FE0A9
:1012E00005D5BDE8F04101F04FBB5A078CD4C94386
:1012F000890589D4BDE8F04101F0DDBA94696DE754
:10130000556825F480655560E243540700D50121F6
:10131000120601D5828900E0028B80F83C3092B23F
:10132000FFF7EDFE70E7DC0606D4CC43A40503D43A
:10133000BDE8F04101F0FABD212E27D0292E25D09D
:101340005C0655D4CC43640552D45B0752D590F863
:101350003D10438D002B91D01269436A1A70426A86
:10136000521C4262428D521E4285428D002A85D116
:101370002A29D7D101684A6822F480624A60222172
:10138000016380F83D5000F07DFB3DE71C0623D44F
:10139000CC43640520D45B0720D590F83D10438DE5
:1013A000002BBFD0436A1B781361426A521C426211
:1013B000428D521E4285428D002AB3D12929B1D1D6
:1013C00001684A6822F480624A602121016380F842
:1013D0003D5000F058FB17E75B07A3D4C9438905CC
:1013E000A0D4418D00299DD0416A097811610AE09D
:1013F0005B0797D4C943890594D4418D002991D0C6
:101400001169426A1170416A491C4162418D491E4D
:101410004185F9E67047000070B504001BD094F8D0
:101420003D00002520B984F83C50204600F0E6FA43
:10143000242084F83D002068016821F0010101604A
:1014400000F074FC4D4A6168914201D84C4900E0BB
:101450004C49884201D2012070BD4B492368B0FB42
:10146000F1F15E6826F03F060E435E6063689342CA
:1014700006D94FF4967359434FF47A73B1FBF3F1E5
:101480002368491C1E6A26F03F06314319626168D1
:10149000914210D84900401EB0FBF1F2521CC2F339
:1014A0000B02042A01D2042022E0B0FBF1F0401C20
:1014B000C0F30B001CE0A368F3B301EBC10202EB25
:1014C0000116421EB2FBF6F2521C42F48042120593
:1014D00049D093B301EBC10202EB0111401EB0FBF6
:1014E000F1F0401CC0F30B0040F4804040F4004099
:1014F0002168CA694CF6FF739A431043C861D4E966
:101500000701084321680A6822F0C00210430860FE
:10151000D4E9030101432068826848F2FF339A430B
:1015200011438160D4E9050108432168CA6822F0AB
:10153000FF021043C86001E00EE016E02068016879
:1015400041F0010101602564202084F83D002563FD
:1015500084F83E50002070BD01EB4106421EB2FBF4
:10156000F6F2521CB3E70120C2E701EB4101401E35
:10157000B0FBF1F0401CC0F30B00B7E7A086010000
:1015800080841E0000093D0040420F002DE9FF4FFE
:1015900081B089460446FFF7ABFD054694F83D004F
:1015A0004FF0010820287AD1192301224B49204607
:1015B000009501F08FFD002871D194F83C000128BE
:1015C0006DD0012084F83C0020680168C90703D170
:1015D000016841F0010101602068016821F40061A7
:1015E0000160242084F83D00002626643C48E06227
:1015F0004FF0011B20272068016841F480710160D1
:101600000095002259462046049B01F063FD002806
:1016100056D1216809F0FE000861FFF769FD2168D5
:10162000054648694969C0F34000C1F380214FF085
:10163000A00A0FE0FFF75CFD411B0498814200D82F
:1016400008B984F83DA0216848694969C0F34000A1
:10165000C1F3802194F83D20A02A02D008B90029C6
:10166000E8D084F83D7020684169C943890717D4E0
:10167000016841F4007101602068416980691923A3
:10168000012216492046009501F024FDC0B984F8D6
:101690003D7084F83C60002005B0BDE8F08F1BE091
:1016A000016841F40071016021686FF48060486155
:1016B0001923012209492046009501F00BFD08B1CC
:1016C0000120E9E7039808F10108804593D384F8E5
:1016D0003D7084F83C60F3E70220DDE70200100073
:1016E0000000FFFF70477047704700002DE9F84F7A
:1016F0001F4690468A460446DDF82890FFF7F8FC1E
:10170000054694F83D00202875D1192301226C4923
:101710002046009501F0DEFC0028F5D194F83C004D
:10172000012868D0012084F83C0020680168C907BE
:1017300003D1016841F0010101602068016821F4D2
:1017400000610160222084F83D00102084F83E00F2
:1017500000262664C4F824806785608D208559485A
:10176000E0622B464A465146204601F056F90028D1
:1017700078D1208D544F68B1012814D002282068F8
:10178000016816D041F48061016020684169806978
:10179000009087E02068416981690091016841F407
:1017A000007101607EE02068016821F480610160C1
:1017B000F0E721F4806101602068016841F4006174
:1017C000E2E7032848D801280AD0022814D04B4663
:1017D000002239462046009501F07CFCD8BB27E06A
:1017E0002A464946204601F0F4FCA0BB2068006967
:1017F000616A08704DE061E04B46002239462046A0
:10180000009501F067FC30BB2068016841F400716D
:10181000016020680069616A0870606A401C60624B
:10182000218D491E2185618D491E618521682EE02B
:101830002068016821F48061016020680069616AA4
:101840000870606A401C6062208D401E2085608D9B
:10185000401E6085D0E705E02A464946204601F053
:10186000B8FC10B10120BDE8F88F20680069616AFA
:101870000870606A401C6062218D491E2185618D5F
:10188000491E618521684A69D24352070AD4096911
:101890000170606A401C6062208D401E2085608D52
:1018A000401E6085208D00288BD1202084F83D00CB
:1018B00084F83E6084F83C600020D4E70220D2E740
:1018C000020010000000FFFF040001002DE9F84FA6
:1018D0001F4690468A460446DDF82890FFF708FC2C
:1018E000054694F83D0020287FD119230122404964
:1018F0002046009501F0EEFB002876D194F83C00DC
:10190000012872D0012084F83C0020680168C907D2
:1019100003D1016841F0010101602068016821F4F0
:1019200000610160212084F83D00102084F83E0011
:1019300000262664C4F824806785608D20852D48A4
:10194000E0622B464A465146204601F0D1F890B954
:10195000206841698069009036E02A464946204661
:1019600001F06AFC50B1206C042804D120680168A1
:1019700041F4007101600120BDE8F88F606A2168C0
:1019800000780861606A401C6062618D491E618553
:10199000218D491E89B2218522685369DB435B078B
:1019A0000BD451B100781061606A401C6062608D98
:1019B000401E6085208D401E20852A4649462046CF
:1019C00001F062FB0028CED1208D0028C5D154F84B
:1019D0003D0B016841F400710160202004F81E09EC
:1019E000E67766770020C7E7FFE70220C4E700003C
:1019F000020010000000FFFF7047704710B586B06E
:101A0000044614216846FEF733FC1B4920688842CF
:101A100030D11A48016841F002010160006869464E
:101A200000F002000590C0200090122001900120DB
:101A3000029003200390042004901148FFF77AFAE3
:101A40000E481030016841F4001101600068002266
:101A500000F40010059011461F2000F07DF81F20B3
:101A600000F06CF800221146202000F075F82020CC
:101A700000F064F806B010BD005400403038024059
:101A800000040240704770470248816802781144A0
:101A900081607047280000200B4810B5016841F4B0
:101AA00000710160016841F480610160016841F4E6
:101AB00080710160032000F06FF8002000F006F84C
:101AC00000F024F8002010BD003C024070B50D4D20
:101AD00004464FF47A712878B1FBF0F00A4909689E
:101AE000B1FBF0F000F002FB48B9102C07D2002245
:101AF0002146501E00F030F800206C6070BD0120BF
:101B000070BD000028000020340000200A4808B5FD
:101B1000016841F480410160006800F48040009059
:101B20000548001F016841F080510160006800F025
:101B30008050009008BD000044380240002809DBB6
:101B400000F01F02012191404009800000F1E020D7
:101B5000C0F8001170470000F0B40E4B1B680C4633
:101B6000C3F30223C3F10705042D00D90425191D71
:101B7000072901D2002300E0DB1E012606FA05F149
:101B8000491E214099409E40761E16403143F0BCCC
:101B900003F0F8B90CED00E0064900F00702086810
:101BA0004FF6FF03184040EA0220034A1043086042
:101BB000704700000CED00E00000FA052DE9F04749
:101BC0000E46050065D0DFF81481D8F80000F7B2A2
:101BD00000F00F00B04207D288F80070D8F800007B
:101BE00000F00F00B04254D128683D4C810712D557
:101BF000400703D5206840F4E050206028780007B3
:101C000003D5206840F4604020602068A96820F077
:101C1000F000084320602878C0072DD0304968685C
:101C20000839012812D0022813D0032811D00968DE
:101C3000890700292DDA216821F003010143216081
:101C4000FFF756FA814641F2883A0EE009688903A7
:101C5000EFE709688901ECE7FFF74AFAA0EB090111
:101C6000514502D90320BDE8F0872068696800F07B
:101C70000C00B0EB810FEFD1D8F80010404601F016
:101C80000F01B14207D90770006800F00F00B042A1
:101C900001D00120E7E72878400705D52068E968EA
:101CA00020F4E050084320602878000706D520681B
:101CB000296920F4604040EAC100206000F056F835
:101CC0002168084AC1F30311515CC8400649086005
:101CD0000020FFF7FBFE0020C5E70000003C0240AB
:101CE000083802409C620008340000200F22026085
:101CF0000C4A136803F003034360136803F0F00316
:101D00008360136803F4E053C36012684FF4E05338
:101D100003EAD20202610448006800F00F00086084
:101D20007047000008380240003C02400448054962
:101D300000680968044AC1F38221515CC8407047B9
:101D40003400002008380240AC620008044805490D
:101D500000680968044AC1F34231515CC8407047C9
:101D60003400002008380240AC620008154810B565
:101D7000006810F00C02144813D01449042A0FD044
:101D8000082A0ED10F4C241F2268236802F03F025C
:101D90005B0207D52068C0F38810A0FB010106E0B4
:101DA000084610BD2168C1F38811A1FB0001002382
:101DB000FEF706FA2168C1F30141491C4900B0FB56
:101DC000F1F010BD083802400024F40040787D0195
:101DD0002DE9F84F050076D02878DFF8F8B2BE4C30
:101DE000C00749D0DBF800105846C1F38101012932
:101DF00008D00068C0F3810002280AD1201D0068C5
:101E0000400206D52068800336D568680028E2D0F5
:101E100032E06868B0F5803F10D0B0F5A02F2068A0
:101E200010D020F480302060206820F480202060D2
:101E30006868A0B1FFF75CF906460CE0206840F442
:101E40008030F4E740F480202060F7E7FFF750F996
:101E5000801B642873D820688003F7D50CE0FFF757
:101E600047F9064605E000BFFFF742F9801B6428EA
:101E7000F0D820688003F7D42878DFF860828007E4
:101E80004FF000093ED5DBF80010584611F00C0F5A
:101E900009D00068C0F3810002280BD18D48001FD3
:101EA0000068400206D42068800715D5E86801283C
:101EB00009D111E0E868B8B10120C8F80000FFF7C7
:101EC00017F9064605E002E1FFF712F9801B022828
:101ED000C0D820688007F7D52068296920F0F8006D
:101EE00040EAC10020600DE0C8F80090FFF700F95B
:101EF000064604E0FFF7FCF8801B02281FD8206884
:101F00008007F7D42878000722D5724E7448696993
:101F10006C3671B101210160FFF7EAF8074604E071
:101F2000FFF7E6F8C01B022809D830688007F7D50C
:101F30000EE0C0F80090FFF7DBF8074605E083E00D
:101F4000FFF7D6F8C01B02287ED830688007F7D488
:101F50002878400768D5DFF87CA100270AF1380A05
:101F6000DAF80000C0000BD4DAF8001041F080511C
:101F7000CAF80010DAF80000012700F08050009045
:101F8000584E3068C00510D4306840F4807030601E
:101F9000FFF7AEF8009005E0FFF7AAF80099401AA5
:101FA000022851D83068C005F6D54A4EA868683670
:101FB00001280FD00528306810D020F001003060D3
:101FC000306820F004003060A868B8B1FFF790F8DE
:101FD00000900FE0306840F00100F4E740F00400AA
:101FE0003060F7E7FFF784F80099411A41F2883032
:101FF000814264D830688007F4D50EE0FFF778F8A6
:10200000009007E0FFF774F80099411A41F2883018
:10201000814254D830688007F4D42FB1DAF8001028
:1020200021F08051CAF80010A869C0B3DBF8001095
:10203000C1F3810102294AD00228484607D0C8F8D6
:102040006000FFF755F800E039E005463AE0474602
:10205000C8F86000FFF74CF8064604E0FFF748F8C0
:10206000801B02282BD820688001F7D4D5E907010E
:102070000843A96A1C4A490802EB01416A6A41EA1D
:102080008211084395F82C1040EA01611148001FA5
:10209000016001203866FFF72BF8054605E014E0E3
:1020A000FFF726F8401B022809D820688001F7D5E1
:1020B0000BE000BFFFF71CF8401B022802D90320E9
:1020C000BDE8F88F20688001F4D40020F8E70120F3
:1020D000F6E700000838024000380240000047429E
:1020E000800E4742007000400000FFFF10B5401E08
:1020F000B0F1807F01D3012010BD4FF0E02460617A
:102100000F21601702F03EFF0020A0610720206130
:10211000002010BD7047000070B5026804461068CA
:10212000D168536910F00F0F50D003F0010501F48E
:10213000907635435DD0C20705D0CA0503D5E26B62
:1021400042F00102E263420705D5DA0703D0E26BF1
:1021500042F00202E263820705D5DA0703D0E26BA0
:1021600042F00402E263020705D5DA0703D0E26B0E
:1021700042F00802E263E26B002A33D0800604D505
:10218000880602D5204601F0D5F820684069E16B49
:10219000C0F38010090700D428B3204601F0BCF832
:1021A0002068416949061AD5416921F04001416121
:1021B000606BA0B11B490165606BFEF794FE0028BF
:1021C00010D0606B016DBDE870400847830610D5E4
:1021D0008B060ED52046BDE8704001F0ABB8204616
:1021E000FFF798FF70BD2046FFF794FF0020E063E3
:1021F00070BD030606D50B0604D52046BDE8704029
:1022000001F03ABA4006F3D54806F1D5D168204628
:1022100021F04001D160202184F8391000F046FA05
:1022200070BD00000933000870B5040004D094F8B4
:102230003900002510B106E0012070BD84F8385047
:10224000204600F023F8242084F839002068C16873
:1022500021F40051C160204601F0B8F820680169FE
:1022600021F4904101612068416921F02A01416116
:102270002068C16841F40051C160E563202084F802
:10228000390084F83A00002070BD0000F0B587B036
:10229000044614216846FDF7EBFF2848264F2668C0
:1022A000264910380222012303240725BE421DD1EE
:1022B0000E6846F400360E60096801F4003105919D
:1022C000016841F0010101600068694600F0010009
:1022D00005900C208DE83D001948FEF72BFE0022EA
:1022E00011462620FFF738FC262020E0154FBE427D
:1022F0001FD10E6846F480260E60096801F4802123
:102300000591016841F0020101600068694600F032
:10231000020005904FF440608DE83D000A48FEF74A
:1023200009FE002211462720FFF716FC2720FFF7A1
:1023300005FC07B0F0BD00000044004040380240FA
:1023400000000240004800400004024090F83A308B
:10235000202B22D1F9B1F2B190F83830012B1CD0EA
:1023600081628285C2850021C163222280F83A20E1
:1023700080F838100168CA6842F48072CA60016847
:102380004A6942F001024A610068C16841F02001D7
:10239000C160002070470120704702207047000094
:1023A00030B50068444985B0884277D1012243495D
:1023B0004348FFF7CBFF4148801E807802F0E0FAE7
:1023C00001F020FB002875D002F0DAFC02F004FBDB
:1023D00000286FD03B48008800903B4803783B487A
:1023E00002783B4801783BA002F0A8FD3E48037804
:1023F0003E4802783E4801783EA002F09FFD424CE4
:1024000042A0217802F09AFD4348017843A002F0EF
:1024100095FD207800284DD044480068FDF7FBFF6B
:10242000044643480D460068FDF7F5FF41EC100BEC
:10243000404853EC102B00780294CDE903503E48FD
:10244000007800903DA002F079FD43480068FDF758
:10245000E2FF41EC100B41A053EC102B02F06EFD9B
:1024600043480068FDF7D7FF41EC100B41A053EC47
:10247000102B02F063FD43480068FDF7CCFF41ECF0
:10248000100B41A053EC102B02F058FD434801788B
:1024900043A005B0BDE8304002F050BD08491A2203
:1024A000703901F1B000FFF751FF054940A07039C4
:1024B000EFE7FFE705B030BD004400400200002018
:1024C000C010002076000020600000205F00002087
:1024D0005E00002054696D653A2025643A25643A0F
:1024E00025642E25750A000061000020620000208E
:1024F00063000020446174653A2025642F25642F11
:10250000323025640A000000670000204669783AEE
:102510002025640A00000000680000205175616CED
:102520006974793A2025640A0000000088000020C0
:102530008400002065000020640000204C6F63616F
:1025400074696F6E3A2025352E326625632C20255E
:10255000352E326625630A009400002053706565AD
:10256000643A2025352E3266206B6E6F74730A0034
:1025700098000020416E676C653A2025352E326642
:102580000A00000090000020416C74697475646555
:102590003A2025352E32660A00000000690000202E
:1025A000536174656C6C697465733A2025640A0024
:1025B00025730A002DE9F843044690F839001F46B8
:1025C00016460D46202850D1A5B19EB194F838008A
:1025D00001284AD0012084F838004FF00008C4F8E0
:1025E0003C80212084F83900FEF782FDA6848146D4
:1025F000E68426E00120BDE8F883E08C401EE084FC
:10260000A0684B46B0F5805F4FF000024FF08001AC
:102610002046009703D001F060F8E8B90DE001F022
:102620005CF8C8B928882168C0F3080048602069B0
:1026300008B16D1C05E0AD1C03E0216815F8010B25
:102640004860E08C0028D8D14B460022402120462B
:10265000009701F042F808B10320CCE7202084F86D
:10266000390084F838800020C5E70220C3E790F8DD
:102670003930202B18D1A9B1A2B190F83830012BF4
:1026800012D001628284C2840021C163212280F8B9
:10269000392080F838100068C16841F08001C160BD
:1026A0000020704701207047022070477047FEE706
:1026B0000148FEF725BD00006C1000200148FEF720
:1026C0007CBD00006C10002010B5806B90F83D3090
:1026D000426B0021D163826BD1630268146824F4D9
:1026E000806414604185426B1165826B11650268DC
:1026F000146824F00104146090F83D202024602A1E
:102700000BD0282232EA03030FD080F83D4080F836
:102710003E1000BFFEF77EFE10BD80F83D4080F801
:102720003E100164FEF7EAFC10BD03681C6844F02B
:1027300001041C6003681C6844F480641C6001632D
:1027400080F83D20E6E7000070B5044690F83D00B3
:1027500094F83E10102906D1222804D121680A6875
:1027600022F400620A60282131EA00024FF00005DD
:102770004FF0200626D021684968090503D4602857
:1027800001D084F83D60256384F83E50206841689C
:10279000090537D5416821F400614160606B90F80C
:1027A00035203749012A11D00165606BFEF79BFB8C
:1027B00038B32068016821F00101016084F83D60B0
:1027C000606B1CE0256384F83D10DFE7A06B0165BA
:1027D000A06BFEF788FBA0B120684169C943490698
:1027E00005D40069616A0870606A401C60622068F4
:1027F000016821F00101016084F83D60A06B016D6A
:10280000884710E094F83D10602923D04169C943FE
:10281000490605D40069616A0870606A401C6062FC
:102820002046FEF7F7FD94F83D00216C490710D5CE
:1028300028280ED12068416821F4E06141601148E8
:10284000E062256384F83D6084F83E502046FEF740
:1028500049FF70BD84F83D6025644169C94349065C
:1028600005D40069616A0870606A401C6062206873
:10287000016821F0010101602046FEF73FFCD2E72C
:10288000C92600080000FFFF01684A69D2435205CB
:102890000FD46FF480624A61002140F8301F20227B
:1028A00042738173026942F00402026101730120E4
:1028B00070470020704710B5C26A438D0168042B31
:1028C00006D0438D032B08D0438D022B1DD012E080
:1028D0004A6822F480624A600CE04B6823F480630B
:1028E0004B60042A06D0022A04D001680A6822F448
:1028F00080620A6001680969426A1170416A491C74
:102900004162418D491E418510BD012A30D0102AF7
:102910002ED0042A30D0022A2ED00A6842F4007247
:102920000A6001680969426A1170416A491C416282
:10293000428D521E4285026812690A70416A491C22
:102940004162418D491E418501684A6822F4407206
:102950004A60202180F83D1090F83E200021402A56
:1029600080F83E100CD012210163FEF7BCFE10BDB2
:102970000A6822F48062D3E70A6842F48062CFE7F3
:102980000163FFF739F810BD10B590F83D1022290A
:1029900014D1418D032912D901680969426A117065
:1029A000416A491C4162418D491E4185418D03297F
:1029B00004D10068416821F48061416010BDC26AA1
:1029C000022AFBD0012901D00029F7D101680A6849
:1029D00022F480620A6001684A6822F4E0624A6078
:1029E00001680969426A1170416A491C4162418D5E
:1029F000491E4185202180F83D1090F83E2000219D
:102A0000402A80F83E1004D012210163FEF76BFECD
:102A100010BD0163FEF7F0FF10BD2DE9F84F04462D
:102A2000C06A1E4692460D4621680A6842F48062DA
:102A30000A60082807D0012805D010F5803F02D091
:102A4000206B112804D12068016841F48071016075
:102A50004FF001185346002241462046009600F0F0
:102A600039FBF0BB206908F10109B0F5804F0FD0A8
:102A70000620216800EAD51747F0F00008613346C8
:102A8000524608F10701204600F058FB48BB03E01E
:102A9000E8B240F001001BE02168E8B2086133466B
:102AA00052464946204600F049FBD0B920684169AA
:102AB00081690091016841F48071016053460022F0
:102AC00041462046009600F005FB50B947F0F10062
:102AD00021680861334652464946204600F02EFBE5
:102AE00000E001E0002800D00120BDE8F88F0000E0
:102AF000F8B50446C06A1E460D461746082807D09A
:102B0000012805D010F5803F02D0206B122804D197
:102B10002068016841F480710160134600224FF083
:102B200001112046009600F0D5FA08BB2069B0F5E7
:102B3000804F0ED00620216800EAD51040F0F0004A
:102B4000086133463A460B49204600F0F7FA78B957
:102B500002E005F0FE0000E0E8B2216808610549E6
:102B600033463A46891F204600F0E8FA002800D094
:102B70000120F8BD0800010010B5C26A90F83D10B0
:102B800021290BD1418D51B1416A02680978116147
:102B9000416A491C4162418D491E418510BD202377
:102BA0000021082A13D0202A11D012F5803F0ED020
:102BB0000268546824F4E06454601122026380F8CF
:102BC0003E1080F83D3000BFFEF78EFD10BD02685C
:102BD000546824F4E06454600268146844F4007497
:102BE0001460016380F83D3090F83E2080F83E107C
:102BF000402AE9D1FEF701FF10BD000010B590F8A2
:102C00003D1090F83E30C26A048D64B1212903D092
:102C1000402B21D122291FD1418DA1B390F83E1024
:102C2000402937D046E02129F2D120230021082A6B
:102C300013D0202A11D012F5803F0ED002685468BC
:102C400024F4E06454601122026380F83E1080F89E
:102C50003D3000BFFEF748FD10BD0268546824F403
:102C6000E06454600268146844F400741460016302
:102C700080F83D3090F83E2080F83E10402AE9D19F
:102C8000FEF7BBFE10BDFFE70068416821F48061DC
:102C90004160F7E7016DC1B1016D012922D0016DDD
:102CA0000229EFD190F83D10222923D090F83D1051
:102CB0002129E7D1416A026809781161416A491CFA
:102CC0004162418D491E4185DCE7C16C0129816C5F
:102CD00002D0C1F3072107E00268C9B21161016D9A
:102CE000891C05E0816CC9B202681161016D491C43
:102CF0000165C7E70068016841F480710160C1E7C0
:102D000078B590F83E50C26A036B90F83D6000249D
:102D10000168222E7AD1066D0EB9402D76D0056D50
:102D20001DB90569B5F5404F09D0458D05B3468DF0
:102D3000384D012E0ED0438D022B3AD05DE04A690A
:102D40008A6900920A6842F480720A60016D491C27
:102D5000016578BDAA4213D10A6822F480620A6034
:102D600001684A68120503D50A6822F4806216E0F9
:102D70004A698A6900920A6842F400720A6039E07E
:102D8000082A10D0202A0ED0122B0AD0042A03D0F1
:102D9000022A01D0102AE7D10A6842F480620A6050
:102DA00024E0012AE0D00A6822F480620A60016807
:102DB000DEE7042A21D0022A1FD0102A1DD00B687A
:102DC00023F480630B6001680B6843F400630B60BD
:102DD00001684B681B0509D5AA4212D0012A10D000
:102DE000082A0ED0102A0CD0202A0AD001684A697D
:102DF00089690091046578BD08E00B6843F480633D
:102E0000E5E74A6842F480524A60EFE7486988691A
:102E10000090F0E70000FFFF90F83E10402910D02E
:102E20000169B1F5804F19D0016DB1B3016D012970
:102E300010D1416C5FF0F10201F4407142EAD1110E
:102E400006E0016D0029416C05D0C9B241F00101D5
:102E500000680161704701F0FE01F9E790F83D104C
:102E60002129416C07D0C9B241F00101026811610A
:102E7000416B31B902E001F0FE01F7E7826B002AF5
:102E8000E8D0C96B19B9816BC96B0029E2D0006821
:102E9000416841F4006141607047FFE7416CF022F6
:102EA00001F44071CAE700002DE9F04190F83D407F
:102EB000C26A002320261C4F01686FF48065082A2F
:102EC00001D0202A01D1282C04D0212C16D04D610C
:102ED000BDE8F081C7624A6822F4E0624A60016896
:102EE0004D6101680A6822F480620A60036380F819
:102EF0003D6080F83E30FEF7F5FBE9E7C76221222E
:102F0000026380F83D6080F83E304A6822F4E06257
:102F10004A6001684D6101680A6822F480620A60B3
:102F2000FEF7B1FDD4E700000000FFFFF8B590F810
:102F30003D6004460068416821F4E061416020681A
:102F4000002541690091016841F00101016020689C
:102F5000016821F48061016020684168090520D57D
:102F6000474F222E48D02A2E46D0616B0968496807
:102F70006185618D19B1216C41F0040121644168C2
:102F800021F400614160606BFDF7BFFF012808D0AC
:102F9000606B0765606BFDF7A6FF10B1606B016D9C
:102FA0008847608D08B320684169C943490708D440
:102FB0000069616A0870606A401C6062608D401E32
:102FC000608520684169C943490608D40069616A7F
:102FD0000870606A401C6062608D401E6085608D74
:102FE00018B1206C40F004002064206C00B320462F
:102FF000BDE8F840FFF7A8BBA16B09684968618587
:10300000618D19B1216C41F004012164416821F402
:1030100000614160A06BFDF778FF0128C1D0A06B73
:103020000765A06BFDF75FFF0028BAD0A06BB6E77D
:103030002A2E06D12563282084F83D002046FEF77D
:1030400021FD94F83D10202028290DD0216B222944
:1030500001D0222E07D1256384F83D0084F83E502C
:103060002046FEF70FFDF8BD0649E162256384F8AE
:103070003D0084F83E502046FEF734FBF8BD0000CA
:10308000C92600080000FFFF70B516460D4604462D
:103090000DE02046FFF7F8FB08B1012070BD681C69
:1030A00005D0FEF725F8801BA84207D835B1206867
:1030B0004069C0434007ECD4002070BD002044F8B4
:1030C000300F20216173A073216941F0200121613B
:1030D0002073E2E72DE9F0471E4690460D46044670
:1030E000C1F30747DDF8209008E0701C06D0FDF71B
:1030F000FFFFA0EB0900B0420FD876B12068012F86
:1031000018D0806925EA00000004000C14D00021CA
:103110004145EAD00020BDE8F087002044F8300F98
:1031200020216173A073216941F020012161207386
:103130000120F0E74069E5E70121E9E72DE9F047E3
:103140009A4691460E46044600254FF02008C1F3EA
:10315000074725E020684069C043400514D4206833
:10316000016841F40071016021686FF4806048617A
:10317000256384F83D8084F83E50206C40F00400C4
:10318000206484F83C501FE0B9F1FF3F08D0FDF700
:10319000AFFFA0EB0A0149450CD8B9F1000F09D0E7
:1031A0002068012F13D0806926EA00000004000C7B
:1031B0000BD0CFE744F8305F84F80D80A573206909
:1031C00040F02000206125730120BDE8F0874069B0
:1031D000EAE72DE9F041002590460E4604462027F7
:1031E00017E04069C043C0060CD454F8301B6FF0A0
:1031F0001000486144F810596777A577206A20626B
:10320000257717E0FDF774FFA0EB0800B04208D85F
:103210003EB120684169C9434906E2D40020BDE8B7
:10322000F08144F8305F6773A573206940F0200097
:10323000206125730120F2E770B516460D4604465D
:103240000DE02046FFF720FB08B1012070BD681C8F
:1032500005D0FDF74DFF801BA84207D835B1206887
:103260004069C0430006ECD4002070BD002044F843
:10327000300F20216173A073216941F02001216189
:103280002073E2E707490968C9070AD00549803970
:103290000968C90705D04FF060410A68002AFCD0D0
:1032A00008707047800E00E0FEE770477047704777
:1032B000FEF7EABB1048016841F4700101600F4855
:1032C000016841F0010101600C4A002108321160DF
:1032D00002680B4B1A400260031D0A4A1A6002681A
:1032E00022F48022026005480C3001600249580631
:1032F000803908607047000088ED00E00038024027
:10330000FFFFF6FE1030002410B5806B0021C18550
:10331000C184FEF7FFFE10BD0168CA6822F49072F6
:10332000CA6001684A6922F001024A61202180F8DE
:103330003A10704710B590F83A10222901D00220B7
:1033400010BD8168B1F5805F11D001690029016865
:103350001FD0496801F07F03816A4A1C82620B70AA
:10336000C18D491E0904090CC18518D02BE00269E2
:10337000816A002A0268526805D0D2B20A80816A46
:10338000491C8162ECE7C2F308020A80816A891C49
:10339000F7E74A68816A4B1C83620A70E0E70168BC
:1033A000CA6822F02002CA600168CA6822F48072EA
:1033B000CA6001684A6922F001024A61202180F84E
:1033C0003A10FEF7EDFF002010BD00002DE9F0419E
:1033D000044600680169E26821F44051114301612B
:1033E0002169A068E26908436169114322680843C2
:1033F000D16849F20C6399430143D1602068416967
:10340000A26921F4407111434161E2696425B2F57A
:10341000004F9748974922684FF032083FD08A42C0
:1034200001D082427CD1FEF791FC00EBC00101EBA0
:10343000001061688900B0FBF1F6FEF787FC00EB35
:10344000C00101EB001061688900B0FBF1F0B0FB36
:10345000F5F06FF01801484306EB800108EB01100E
:10346000B0FBF5F000F0F006FEF770FC00EBC001D9
:1034700001EB001061688900B0FBF1F0B0FBF5F0E2
:1034800006EB0016FEF762FC00EBC00101EB00103A
:1034900061688900B0FBF1F7FEF758FCD2E08A4280
:1034A00001D082423DD1FEF751FC00EBC00101EB9F
:1034B000001061684900B0FBF1F0B0FBF5F00601C7
:1034C000FEF744FC00EBC00101EB0010616849000D
:1034D000B0FBF1F7FEF73AFC00EBC00101EB001086
:1034E00061684900B0FBF1F0B0FBF5F06FF0180136
:1034F000484307EB800108EBC100B0FBF5F000F09A
:10350000F80006EB4006FEF721FC00EBC00101EBE2
:10351000001061684900B0FBF1F7FEF717FC3CE0D2
:1035200055E0FEF703FC00EBC00101EB0010616801
:103530004900B0FBF1F0B0FBF5F00601FEF7F6FB39
:1035400000EBC00101EB001061684900B0FBF1F72E
:10355000FEF7ECFB00EBC00101EB001061684900D5
:10356000B0FBF1F0B0FBF5F06FF01801484307EB4A
:10357000800108EBC100B0FBF5F000F0F80006EBAD
:103580004006FEF7D3FB00EBC00101EB00106168C1
:103590004900B0FBF1F7FEF7C9FB00EBC00101EBFE
:1035A000001061684900B0FBF1F0B0FBF5F06FF07E
:1035B0001801484307EB800108EBC100B0FBF5F0B0
:1035C00000F00700216830448860BDE8F081FEF714
:1035D000ADFB00EBC00101EB001061688900B0FB9E
:1035E000F1F6FEF7A3FB00EBC00101EB00106168F0
:1035F0008900B0FBF1F0B0FBF5F06FF01801484323
:1036000006EB800108EB0110B0FBF5F000F0F006CE
:10361000FEF78CFB00EBC00101EB00106168890034
:10362000B0FBF1F0B0FBF5F006EB0016FEF77EFB09
:1036300000EBC00101EB001061688900B0FBF1F7FD
:10364000FEF774FB00EBC00101EB0010616889001C
:10365000B0FBF1F0B0FBF5F06FF01801484307EB59
:10366000800108EB0110B0FBF5F000F00F00A9E7B6
:10367000001401400010014090F83910212901D0B8
:10368000022070478168B1F5805F016A0BD04A1C47
:103690000262026809785160C18C491E0904090C54
:1036A000C1840ED017E009880268C1F30801516097
:1036B00001690029016A02D0491C0162ECE7891CFA
:1036C000FBE70168CA6822F08002CA600068C1682E
:1036D00041F04001C160002070472DE9F04198465B
:1036E00017460E460446069D1DE0681C1BD02DB1F2
:1036F000FDF7FEFCA0EB0800A84214D92068C168C1
:1037000021F4D071C1602068416921F0010141615B
:10371000202084F8390084F83A00002084F838002A
:103720000320BDE8F0812068006836EA000004D07C
:103730000020B842D9D00020F3E70120F9E70000CB
:103740000148FEF7E9BC0000C01000200148FEF768
:10375000E3BC000000110020FEE700000200034867
:103760008188806900D00122FDF7BCBC38000020B0
:1037700014480021017081750183134A0262783276
:10378000426241730173C171817141710171C170F4
:103790008170817241720172C1729FED0C0A418386
:1037A00080ED110A80ED100A80ED0F0A80ED0E0AFF
:1037B00080ED0D0A80ED0C0A80ED0B0A80ED0A0AFF
:1037C000704700005C000020A028002000000000DE
:1037D0000FB410B50BA0129C214601F0AFFB2046A0
:1037E000FCF76DFD81B208A001F0A8FB6423042260
:1037F000214602A8FEF7DEFE3220FDF789FB10BC51
:103800005DF814FB25730A0025640A00FFF7B0BFBA
:103810002DE9F04786B014216846FCF729FD2C48B5
:103820000024016841F001010160016801F001011B
:103830000591016841F010010160016801F010017B
:103840000591016841F002010160016801F0020187
:103850000591016841F0080101600068DFF874809B
:1038600000F008004FF4C06505900022294640464C
:10387000FDF738FCDFF860904FF4704600223146C7
:103880004846FDF72FFCDFF854A0371100223946D7
:103890005046FDF727FC00950125CDE90154694606
:1038A00040460394FDF746FB0096CDE90154694676
:1038B00048460394FDF73EFB0097CDE90154694665
:1038C00050460394FDF736FB06B0BDE8F0870000D4
:1038D000303802400010024000040240000C024058
:1038E00010B5012000F005FCBDE810400320FDF7F5
:1038F0000FBB70B50646002409E00120FFF72EFF3C
:10390000284600F009F8641CE4B2102C02D2355DA0
:10391000002DF2D170BD00002DE9F84F0209364CA0
:1039200002F0080302F0040B217802F0020902F011
:10393000010700F0080A00F0040600F0020500F09C
:103940000108009301292FD0022952D13A46218A39
:10395000206AFDF7C7FB4A46618A206AFDF7C2FB71
:103960005A46A18A206AFDF7BDFBE18A009A206AC7
:10397000FDF7B8FB00F060F94246218A206AFDF7A6
:10398000B1FB2A46618A206AFDF7ACFB3246A18A68
:10399000206AFDF7A7FB5246E18A206AFDF7A2FBE9
:1039A000BDE8F84F00F048B942462189E069FDF7CB
:1039B00099FB2A466189E069FDF794FB3246A189AB
:1039C000E069FDF78FFB5246E189E069FDF78AFB6C
:1039D0003A46218A206AFDF785FB4A46618A206AB9
:1039E000FDF780FB5A46A18A206AFDF77BFB009A0F
:1039F000D2E7BDE8F88F0000380000200121022046
:103A000000F070B801480078704700005C000020AA
:103A10001FB5024603A1684601F0A0FA6846FFF709
:103A200068FF1FBD256400002DE9F8418046DDE9EF
:103A30000706009017460C46099D404600F057FDCA
:103A400033463A462146404600F0E8FC2068A8424A
:103A500000DB28462060BDE8F88100002DE9F05F1A
:103A60000AAC94E8E05F1E4CA061A180E280E361B3
:103A700025816681A781A4F80E80C4F82090A4F85F
:103A800010A0A4F812B0A4F814C0A4F816E000F036
:103A900051F8012020703820A0701420FDF738FA6A
:103AA000302000F026FB0520FDF732FA302000F030
:103AB00020FB0120FDF72CFA302000F01AFB01203A
:103AC000FDF726FA382000F014FB0F2000F011FB60
:103AD000012000F00EFBBDE8F05F0220FDF718BAF0
:103AE00038000020491E01F00F01012804D041F0E8
:103AF000C00000BF00F0FDBA41F08000FAE700000E
:103B000030B5012312E000BF50F823401A4602E00E
:103B100040F82250521E002A05DD00EB820555F8C0
:103B2000045CA542F4DC40F822405B1C8B42EBDBDA
:103B300030BD000000B587B005A96846FEF7D6F88D
:103B40000398A8B3FEF7F2F85FEA4000FCF73DFCEB
:103B50009FED191B53EC112BFCF7C5FBFCF742FC46
:103B600017490A6842F002020A6016490A6822F000
:103B700010020A600A6822F001020A600A6822F054
:103B800004020A600A6842F008020A600D492831FE
:103B9000401E08600920091D08600A4901201431EF
:103BA0000860081F016821F00101016007B000BD35
:103BB000FFE7FEF7BBF8C9E78DEDB5A0F7C6B03E4D
:103BC000403802400004004010B592B030216846F1
:103BD000FCF74EFB14210CA8FCF74AFB1448002408
:103BE000016841F080510160006800F08050119040
:103BF0001048016841F4804101600068069400F4B7
:103C00008040119002200090012003901020049029
:103C10006846FEF7DDF80F20CDE90C040E940F94F2
:103C200000210CA81094FDF7C9FF12B010BD0000D0
:103C3000403802400070004010B5094C0122E18874
:103C4000A069FDF74FFA0A2000F01EFC0022E1886F
:103C5000A069FDF747FABDE810403C2000F014BC15
:103C6000380000200FB42A2270B5A8B02CA913A8E0
:103C7000FCF7E5FABDF8DA00ADF8760037981E904B
:103C800038981F9039A909220E4620A8FCF7D7FAC8
:103C90009DF8ED008DF889009DF8EE008DF88A0002
:103CA0003C9823903D9824903E9825903F982690EC
:103CB00040982790C0210220CDE91101442217A984
:103CC0006846FCF7BCFA13AC94E80F0000F08FFBD9
:103CD00000287DD02A222CA913A8FCF7B0FABDF841
:103CE000DA00ADF8760037981E9038981F900922B8
:103CF000314620A8FCF7A3FA9DF8ED008DF8890065
:103D00009DF8EE008DF88A003C9823903D98249011
:103D10003E9825903F9826904098279000240325B0
:103D2000CDE91154442217A96846FCF788FA0DF131
:103D30004C0C9CE80F0000F05AFB002848D02A22C7
:103D40002CA913A8FCF77BFABDF8DA00ADF87600D1
:103D500037981E9038981F900922314620A8FCF70A
:103D60006EFA9DF8ED008DF889009DF8EE008DF853
:103D70008A003C9823903D9824903E9825903F9847
:103D80002690409827900420CDE91104442217A9D9
:103D90006846FCF754FA0DF14C0C9CE80F0000F05B
:103DA00026FB002814D02A222CA913A8FCF747FAD6
:103DB000BDF8DA00ADF8760037981E9038981F905D
:103DC0000922314620A8FCF73AFA9DF8ED0000E000
:103DD0009EE08DF889009DF8EE008DF88A003C98F1
:103DE00023903D9824903E9825903F9826904098A7
:103DF00027900520CDE91104442217A96846FCF755
:103E00001EFA0DF14C0C9CE80F0000F0F0FA0028AF
:103E10007ED02A222CA913A8FCF711FABDF8DA00EB
:103E2000ADF8760037981E9038981F9009223146D9
:103E300020A8FCF704FA9DF8ED008DF889009DF8A4
:103E4000EE008DF88A003C9823903D9824903E988F
:103E500025903F982690409827900620CDE91104A0
:103E6000442217A96846FCF7EAF90DF14C0C9CE8CE
:103E70000F0000F0BCFA00284AD02A222CA913A86F
:103E8000FCF7DDF9BDF8DA00ADF8760037981E9042
:103E900038981F900922314620A8FCF7D0F99DF8E8
:103EA000ED008DF889009DF8EE008DF88A003C98B1
:103EB00023903D9824903E9825903F9826904098D6
:103EC00027900F210820CDE91101442217A9684647
:103ED000FCF7B5F913AC94E80F0000F088FA00285D
:103EE00016D02A222CA913A8FCF7A9F9BDF8DA00EC
:103EF000ADF8760037981E9038981F900922314609
:103F000020A8FCF79CF99DF8ED008DF8890000E0F1
:103F100099E09DF8EE008DF88A003C9823903D983A
:103F200024903E9825903F9826904098279009200D
:103F3000CDE91105442217A96846FCF780F994E8F9
:103F40000F0000F054FA00287DD02A222CA913A8D3
:103F5000FCF775F9BDF8DA00ADF8760037981E90D9
:103F600038981F900922314620A8FCF768F99DF87F
:103F7000ED008DF889009DF8EE008DF88A003C98E0
:103F800023903D9824903E9825903F982690409805
:103F9000279027210A20CDE91101442217A968465C
:103FA000FCF74DF994E80F0000F021FA00284AD000
:103FB0002A222CA913A8FCF742F9BDF8DA00ADF8C3
:103FC000760037981E9038981F900922314620A815
:103FD000FCF735F99DF8ED008DF889009DF8EE00AD
:103FE0008DF88A003C9823903D9824903E98259027
:103FF0003F9826904098279024240C20CDE9110466
:10400000442217A96846FCF71AF913AD95E80F008A
:1040100000F0EDF9002868D02A222CA913A8FCF79B
:104020000EF9BDF8DA00ADF8760037981E90389892
:104030001F900922314620A8FCF701F99DF8ED00F8
:104040008DF8890000E050E09DF8EE008DF88A00C0
:104050003C9823903D9824903E9825903F98269038
:10406000409827900D20CDE91104442217A96846F5
:10407000FCF7E5F895E80F0000F0B9F9002834D016
:104080002A222CA913A8FCF7DAF8BDF8DA00ADF85B
:10409000760037981E9038981F900922314620A844
:1040A000FCF7CDF89DF8ED008DF889009DF8EE0045
:1040B0008DF88A003C9823903D9824903E98259056
:1040C0003F982690409827907F211020CDE911013C
:1040D000442217A96846FCF7B2F813AC94E80F0025
:1040E00000F085F9002800D0012028B070BC5DF8F0
:1040F00014FB10B504460020FFF730FB2046BDE856
:104100001040FFF709BC0FB42A2200B5A9B02AA9B4
:1041100013A8FCF794F8BDF8D200ADF876003598F6
:104120001E9036981F90092237A920A8FCF787F81F
:104130009DF8E5008DF889009DF8E6008DF88A006D
:104140003A9823903B9824903C9825903D9826904F
:104150003E98279040210920CDE91101442217A95A
:104160006846FCF76CF80DF14C0C9CE80F0000F071
:104170003EF9002800D0012029B05DF814FB0FB4EF
:104180002A2210B5AAB02CA911A8FCF758F8BDF83E
:10419000DA00ADF86E0037981C9038981D9039A958
:1041A00009220C461EA8FCF74AF89DF8ED008DF890
:1041B00081009DF8EE008DF882003C9821903D989A
:1041C00022903E9823903F98249040982590442236
:1041D00015A96846FCF733F80DF1440C9CE80F0074
:1041E000FFF791FF2A222CA913A8FCF728F8BDF8A5
:1041F000DA00ADF8760037981E9038981F900922A3
:10420000214620A8FCF71BF89DF8ED008DF88900E9
:104210009DF8EE008DF88A003C9823903D982490FC
:104220003E9825903F9826904098279028A90020F6
:10423000CDE91101442217A96846FCF700F813AC38
:1042400094E80F0000F004F82AB010BC5DF814FBED
:104250000FB4AE217CB50A25DDE91B068DF80400FC
:104260000024012301AA06A80095FDF72FFB38B909
:10427000012301AAAF2106A80095FDF737FA08B17E
:10428000012402E09DF80400307084F001007CBC41
:104290005DF814FB0FB42A222DE9F041ACB00026E2
:1042A000DDE9475432A92E6013A82660FBF7C7FF4B
:1042B000BDF8F200ADF876003D981E903E981F9034
:1042C0003FA90922884620A8FBF7B9FF9DF8050100
:1042D0008DF889009DF806018DF88A004298239098
:1042E0004398249044982590459826904698279086
:1042F0002AAF442217A96846CDE91167FBF79FFF53
:1043000013AE96E80F00FFF7A3FF2A2232A913A8E5
:10431000FBF795FFBDF8F200ADF876003D981E90D2
:104320003E981F900922414620A8FBF788FF9DF880
:1043300005018DF889009DF806018DF88A004298E4
:104340002390439824904498259045982690469829
:1043500027900120CDE91107442217A96846FBF7F1
:104360006EFF96E80F00FFF773FF07208DF8A0009F
:104370000A26012328AAAE2132A80096FDF7A6FA44
:1043800038B9062328AAAF2132A80096FDF7AEF966
:1043900028B100202CB0BDE8F0015DF814FB9DF8B9
:1043A000A000296801EB004028609DF8A11000EBF7
:1043B000012028609DF8A210084428609DF8A30001
:1043C000216801EB004020609DF8A41000EB012063
:1043D00020609DF8A510084420602868C0F31100F3
:1043E00028602068C0F3110020600120D2E70FB4DC
:1043F0001CB50223DDE919018DF804000A208DF8AF
:104400000510009001AAAE2104A8FDF75FFA18B1CB
:1044100000201CBC5DF814FB0120FAE72DE9F043F5
:104420001E4613460C460A6805460146184600F02B
:1044300041F84FF0FF3840461CE00A46411CC6F1E7
:104440000009216013E000BF55F82170431C19D00A
:1044500055F82030FB1AB34201DC4B4506DA2368DD
:104460004FEA830C5B1C236045F80C70491C914299
:10447000EADB401C21688142DFDC2846BDE8F043CE
:10448000FFF73EBB4346E5E70949401E0860084880
:104490001C38016821F00101016005492C390A68C6
:1044A00042F001020A600168C907FCD070470000B1
:1044B0002C040040F0B5012416E000BF51F8245050
:1044C000234602E041F823605B1E002B09DD01EB6F
:1044D000830650F8257056F8046C50F826C06745DE
:1044E000F0DC41F82350641C9442E7DBF0BD2DE979
:1044F000F043814600240120DDF81C805E1E0C6024
:1045000026E052F82070474521DD02EB800454F884
:10451000044CA7421BDD012500E06D1C44199C42A0
:1045200003DA52F824C06745F7D0054452F8255005
:10453000AF420ADD0D680F2D07DA4FEA850C6D1CBE
:104540000D6049F80C00601C02E0204600E0401CB1
:10455000B042D6DBBDE8F0832DE9FF4FBFB00D467A
:10456000DDE94C9600211C46084604E03F9A52F8CB
:104570002020401C1144A842F8DBB1FBF5F20020DA
:10458000F64906E03F9B53F820309B1A41F8203053
:10459000401CA842F6DB002001EB800251F82030DD
:1045A00057683B44D2E902723A441A44D31702EBEB
:1045B0009372921041F82020401CB0F5F87FEBDB9D
:1045C000E74A00204FF4F77301EB80078A46D7F8DB
:1045D00004C051F82070ACEB070742F82070401C73
:1045E0009842F1DD5FF0000002EB800752F82010E6
:1045F0007F689B46394401EBD171491042F8201085
:10460000401C5845F0DBD74F00209646002301465A
:10461000421D08E0A1EB00085EF821C037F81880C1
:10462000491C0CFB18339142F4DB40F27A4193FBB6
:10463000F1F14EF82010401C7346B0F5F47FE5DD33
:10464000002210464FEA0B0753F82010002900DC27
:104650004942401C0A445845F6DD40F2EF1392FBF4
:10466000F3F00822CDE9000205210291BC4A3CA9E1
:1046700012A8FFF7D9F900233C9A12A89E46022AF5
:104680001ADB01210AE000BF00EB810C50F8217019
:104690005CF804CC491CA7EB0C073B449142F3DBCC
:1046A000521E93FBF2F141F2707292FBF1F1316014
:1046B0004E9A0121117002E04E9A82F800E03168B2
:1046C00040F22622914201DD326003E0282901DA1E
:1046D000282131603168283900EE101AB8EEC00A7E
:1046E000DFEDA10A80EE201A9FEDA00ADFEDA00AFF
:1046F000002141EE000ABDEEE00A86ED000A3C9F73
:1047000007E000BF50F8213022AA9B1C42F821305C
:10471000491CB942F6DB9749D04600208A460AE098
:104720003F9951F8201048F82010419951F8201075
:104730004AF82010401CA842F2DB0022134620E079
:1047400022A8012650F823003506411D594517DCE3
:10475000A0F1050CBCF1000F12DD401F0CE000BF02
:1047600058F820C0AC4506DA06B1002665460DF1C2
:104770000C0C4CF82300401C8842F1DB06B9521C9B
:104780005B1CBB42DCDB022A04DA89F800E043B0A0
:10479000BDE8F08F00204FF4F877514608EB800316
:1047A00058F820505E683544D3E9026333442B4403
:1047B000DD1703EB95739B1048F8203001EB800365
:1047C00051F820505E683544D3E9026333442B44EA
:1047D000DD1703EB95739B1041F82030401CB84265
:1047E000DCDB00200DF1DC0B3D9000234BF820308A
:1047F000401C0528F9DB00204FF4FA7509E003ABF3
:1048000053F82030AB4203DD002189F80010BEE7E9
:10481000401C9042F3DB0025A2F1010A5CE000BFDE
:1048200003A800EB850650F825E076684FF07F433B
:10483000A6EB0E001A4631900A284CDD70460CE0BB
:1048400058F82070974201DD3A46339051F82070B5
:104850009F4201DD3B463290401C8642F0DC51F81D
:10486000267051F82E003E90DDF8C8C0381AACEB27
:104870000E077843319F90FBF7F73E98384451F884
:104880002C70381A029058F8266058F82EC0339FC2
:10489000A6EB0C00A7EB0E067043319E90FBF6F6DC
:1048A00006EB0C00329E58F82660361A02985E43DA
:1048B0005043C211F01100280DDD3D9B052B0ADA93
:1048C0004AB164235A4392FBF0F33D984BF82030F1
:1048D0003D98401C3D906D1C5545A1DB58463D99C7
:1048E000FFF70EF93D9800EBD070401001280ADD6B
:1048F0000BEB80025BF8200052F8042C104400EB14
:10490000D070401001E05BF82000C11EB52905D22F
:1049100014493E31085C0121206000E0002189F843
:1049200000102068642801DD642002E0462801DAD6
:1049300046202060463800EE100AF8EEC00A9FEDCF
:104940000E0A20EE801A9FED0D0AF3EE0D0A01EE1D
:10495000200ABDEEC00A84ED000A18E70019002005
:1049600040110020B46200080000FF4300007042C4
:1049700000002042D02000200000003D00008C42BA
:1049800030B51349002324280A6A02D00A2804D02B
:1049900012E00C8B13550B830EE00C8B13550D4C52
:1049A00004F17805A24202D1C1E9085401E0C1E94D
:1049B00008450B8301220A700A8B0B6A1344521CB0
:1049C0000A8318700A8B782A01D377220A8330BDB4
:1049D0005C000020A02800202DE9F05F07462DEDA7
:1049E000048BFBF76CFC384410F8040C2A2819D10E
:1049F0003846FBF764FC384410F8030C00F0C8F9A3
:104A00003846FBF75CFC384410F8020C00F0C0F9A3
:104A1000012401E0641CE4B23846FBF750FC001F9F
:104A2000A042F7D83846CDA1FBF72DFC9FEDCD9BDA
:104A30009FEDCE8B64250026DFF8389300284FF0D9
:104A40004E0A4FF0530B42F21074384676D02C21A8
:104A500000F072FA401C074600F0AAFA51EC100B65
:104A6000FBF7ECFC00EE900AC846BCEEE00A10EE44
:104A7000100AB0FBF4F189F80210B0FBF4F104FB6A
:104A80001101B1FBF5F189F80310B0FBF5F105FB5D
:104A9000110089F8040010EE900AFBF7BCFC41EC11
:104AA000100BB0EE491AF0EE691A00F09DFA53ECC3
:104AB000182B51EC100BFBF716FCFBF793FCA8F836
:104AC0001A002C21384600F037FA401C044600F04A
:104AD0006FFA51EC100BFBF7B1FCC8F828002C2141
:104AE000204600F029FA10F8011F4E2904D053295E
:104AF00005D02C2906D0F2E088F808A004E088F858
:104B000008B001E088F808602C2100F015FA401C7C
:104B1000044600F04DFA51EC100BFBF78FFCC8F87F
:104B20002C002C21204600F007FA10F8011F57290D
:104B300005D0452903D02C2904D0D0E045E088F8E1
:104B4000091001E088F809602C2100F0F5F9401CFB
:104B50000446FBF7BBFB88F80C002C21204600F034
:104B6000EBF9401C0446FBF7B1FB88F80D002C2143
:104B7000204600F0E1F9401C044600F019FA51EC1F
:104B8000100BFBF75BFCC8F844002C21204600F01A
:104B9000D3F9401C044600F00BFA51EC100BFBF764
:104BA0004DFCC8F834002C21204600F0C5F92C211A
:104BB000401C00F0C1F9401C00F0FAF951EC100B58
:104BC000FBF73CFCC8F83000C5E06BA1FBF75BFBD2
:104BD00000287DD038462C2100F0AEF9401C074655
:104BE00000F0E6F951EC100BFBF728FC00EE900A00
:104BF0002146A046BCEEE00A4C4610EE100AB0FB7F
:104C0000F1F289F80220B0FBF1F208FB1201B1FBCE
:104C1000F5F189F80310B0FBF5F105FB110089F8F7
:104C2000040010EE900AFBF7F6FB41EC100BB0EE1F
:104C3000491AF0EE691A00F0D7F953EC182B51EC31
:104C4000100BFBF750FBFBF7CDFB60832C213846A4
:104C500000F072F910F8011F412902D0562903D043
:104C60003DE00121E17200E0E6722C2100F064F9E0
:104C7000401C074600F09CF951EC100BFBF7DEFBE3
:104C8000A0622C21384600F057F910F8011F4E2978
:104C900004D0532905D02C2906D020E084F808A0A0
:104CA00003E084F808B000E026722C2100F044F9FB
:104CB000401C074600F07CF951EC100BFBF7BEFBE3
:104CC000E0622C21384600F037F910F8011F00E0AF
:104CD00006E0572908D0452906D02C2906D0002007
:104CE000BDEC048BBDE8F09F617200E066722C2180
:104CF00000F022F9401C064600F05AF951EC100B66
:104D0000FBF79CFBA0632C21304600F015F9401CFA
:104D1000064600F04DF951EC100BFBF78FFBE063FA
:104D20002C21304600F008F9401C00F041F951EC0C
:104D3000100BFBF757FB4146B0FBF1F2E271B0FB01
:104D4000F8F208FB1201B1FBF5F1A171B0FBF5F12E
:104D500005FB110060710120C2E7000024475047A5
:104D600047410000000000000000F03F000000008C
:104D700000408F405C000020244750524D4300000B
:104D8000024800210170406A704700005C0000206A
:104D9000302805D3392801D8303806E0412801D21F
:104DA000002070474628FCD83738C0B27047000052
:104DB0002DE9F04F554C0027DFF85481A9B0524837
:104DC000C4E904073E4608F1340BA8F2EC79A8F6D2
:104DD000BC7A8EE01420FCF79BF82A224C4913A8D9
:104DE000FBF72DFAB8F82A004546ADF87600D8F85A
:104DF0002C001E90D8F830001F900922594620A898
:104E0000FBF71DFA95F83D008DF8890095F83E00F6
:104E10008DF88A00286C2390686C2490A86C2590EB
:104E2000E86C2690286D27900AEB860109EB860036
:104E3000CDE91101442217A96846FBF700FA13AD2A
:104E400095E80F00FFF726FA050000D17F1C052F1B
:104E500031DD2A222E4911A8FBF7F1F9B8F82A0012
:104E60004746ADF86E00D8F82C001C90D8F83000FA
:104E70001D90092259461EA8FBF7E1F997F83D005D
:104E80008DF8810097F83E008DF88200386C2190F3
:104E9000786C2290B86C2390F86C2490386D259033
:104EA000442215A96846FBF7CAF911AF97E80F002D
:104EB000FFF729F9002759F826002169884200D216
:104EC00020616169884200D960615AF826004CF27D
:104ED0005031884207D235B1FEF702FD0DA0FEF732
:104EE00008FD002604E0FEF7FBFC0FA0FEF701FD25
:104EF000761C60688642FFF66DAFE16959F82100C3
:104F0000A06129B0BDE8F08FFFFF03000000002082
:104F10006C10002050757420796F75722066696E70
:104F2000676572210000000043616C6962722E2087
:104F30007374617274656400FBF7B7B90FB4054B05
:104F400010B503A9044A029800F0C8F910BC5DF836
:104F500014FB0000155A0008A40000200FB4084BF1
:104F600010B504A902AA039800F0B8F9044602A9F2
:104F7000002000F04AFD204610BC5DF814FB000044
:104F80000B5A00080907090E002804DB00F1E02095
:104F900080F80014704700F00F0000F1E02080F866
:104FA000141D704700487047AC000020000000004E
:104FB00030B583B0044600F0ABF89FED090B054611
:104FC0008DED000B002221466846FBF7A4FA284627
:104FD00000F0B4F89DED000B03B030BD0000000000
:104FE000000000000000000010B52DED040B86B09D
:104FF0009DED060B10EE100A10EE901A8DED000BD1
:10500000002818BF0120084320F00040C0F17F6055
:1050100000F1E040C00F21D19DED080B10EE101AF9
:1050200010EE900A8DED000B002918BF01210843F6
:1050300020F00040C0F17F6000F1E040C00F0DD1D2
:1050400029490798B1EB400F04BF0698002842D0C9
:105050000998400004BF089800283CD09DED080B3B
:1050600053EC102B9DED060B51EC100BFBF768FC7D
:10507000CDE902019DED020B40F2FF7110EE900AA6
:105080008DED000B31EA105021D00798039900F004
:10509000004001F00041884219D09DED080B8DEDD4
:1050A000040B9DED020B8DED000B10EE900A05999F
:1050B00061F31E0005909DED041B9DED020B51EC6C
:1050C000110B53EC102BFBF7C9FBCDE902019DED51
:1050D000020B0AB010BD012000F030F80AB0BDE8A4
:1050E000104000F005B800000000E0FF00000000E4
:1050F0009FED050B10B553EC102B51EC100BFBF78B
:10510000B0FB41EC100B10BD0000000000000000DF
:105110000148006870470000AC00002002E008C8A9
:10512000121F08C1002AFAD170477047002001E021
:1051300001C1121F002AFBD170470000014908601D
:1051400070470000AC0000202DE9FF5F82B0002115
:10515000DDE90430020DDDF840B0034318D044F619
:105160001050A2F2FF3242431514119801281FD0AB
:10517000A5EB0B00401C5FEA000A4FF000064E4F03
:10518000DFF83891B046504615D5CAF1000413E057
:10519000119801244AA3012801D16FEA0B0102985A
:1051A000119AC0E90031C0E9024206B0BDE8F09FA3
:1051B000CBF10000DFE704460021404A491842EBEA
:1051C0000450CDE9001012E0E00707D032463B461C
:1051D00040464946FBF787F88046894632463B46BB
:1051E00010461946FBF77FF806460F466410002C60
:1051F000EAD1DDE90401DDE90023BAF1000F06DAA6
:10520000FBF771F842464B46FBF76DF805E0FBF7FC
:1052100028FB42464B46FBF724FB04460E46002281
:10522000284BFBF7E9FB03D84FF0FF30014607E0BE
:105230000022254B20463146FBF76CFAFBF7C3FBF7
:10524000102409E0002C0ADB0A220023FAF7B8FF39
:10525000039B30321A55641E50EA0102F2D1641CDD
:10526000039AC4F111031444119A012A03D00122B4
:1052700008430DD10AE0084304D000204FF0110B81
:10528000119072E7A3EB0B056D1E0DE05B4504DD8D
:105290004FF0000205F1010504E003DA4FF00002CF
:1052A000A5F10105002AECD002981199C0E902315C
:1052B000C0E9004579E70000000014400000F03F1D
:1052C000300000000000F0430000E03F30380A28C2
:1052D00001D2012070470020704700002DE9FF4FE8
:1052E00095B09B468946064600250FE2252877D1D2
:1052F00000242746F84A0121059400E0044316F8EB
:10530000013F203B01FA03F01042F7D130782A2800
:1053100011D06FF02F033078A0F13002092A16D88F
:10532000059A44F0020402EB820203EB42021044AD
:10533000761C0590EFE759F8042B0592002A03DA52
:10534000504244F40054059044F00204761C307836
:105350002E2816D116F8010F44F004042A280DD087
:105360006FF02F023078A0F13003092B09D807EB3A
:10537000870302EB4303C718761CF3E759F8047B55
:10538000761C30786C280FD006DC4C2817D06828A3
:105390000DD06A2814D104E0742810D07A280FD1D7
:1053A0000DE044F400140AE044F4801401E044F4F5
:1053B00040147278824202D104F58014761C761C67
:1053C000307866280BD013DC582877D009DC002809
:1053D00075D04528F6D04628F4D047281AD19DE14B
:1053E00018E0632835D0642879D0652812D195E17A
:1053F000702873D008DC6728F1D069286FD06E2838
:105400000DD06F2806D1B5E073282CD0752875D043
:10541000782874D05A46179990476D1C75E1C4F3EB
:105420000250022809D003280DD0D9F80010042812
:105430000DD00D6009F1040967E1D9F80010EA17F1
:10544000C1E90052F6E7D9F800100D80F2E70D70BF
:10545000F0E719F8041B8DF8001000208DF801000A
:10546000EA46012003E059F804AB4FF0FF30610732
:105470004FF0000102D40DE008F101018846B94265
:105480000FDA8045F8DB1AF808100029F4D108E09B
:1054900008F1010188468142FADB1AF80810002958
:1054A000F6D105985B46A0EB080721463846179AC7
:1054B00000F094FA284400EB080507E04DE029E1EC
:1054C0000DE01AF8010B5A4617999047B8F10108F8
:1054D000F7D25B4621463846179A13E142E00A228A
:1054E0000092C4F302524FF0000A022A08D059F881
:1054F00004CB032A4FEAEC710AD00DE029E02AE040
:1055000009F1070121F00702F2E802C1914609E022
:105510000FFA8CFC4FEAEC71042A03D14FFA8CFC91
:105520004FEAEC71002907DA0A460021DCF1000C91
:1055300061EB02012D2202E0220504D52B228DF819
:105540000420012203E0E20701D02022F7E7904681
:1055500059E00A2102E010220DE010214FF0000A6C
:1055600000910BE010224FF0000A44F004040827D9
:10557000009203E008224FF0000A0092C4F30252A6
:10558000022A05D059F804CB0021032A08D009E0EB
:1055900009F1070121F00702F2E802C1914605E096
:1055A0001FFA8CFC042A01D10CF0FF0C4FF000080C
:1055B000220728D5702806D0009B83F0100353EAF9
:1055C0000A0305D00EE040228DF80420012208E0F5
:1055D0005CEA010206D030228DF804208DF8050027
:1055E00002229046009B83F0080353EA0A030AD183
:1055F0005CEA010201D1620705D530228DF8042052
:105600004FF001087F1E582804D034A003900EA844
:1056100002900DE036A0F9E753466046009AFAF78B
:10562000CFFD84460398825C0298401E029002706F
:105630005CEA0100F0D1029806A9081A00F1200ADC
:10564000600702D524F4803400E00127574502DDCD
:10565000A7EB0A0000E0002000EB0A01009005988B
:105660004144401A0590E00306D45B462146179A50
:10567000059800F0B3F90544002706E001A85A4652
:10568000C05D179990476D1C7F1C4745F6DBE00312
:105690000CD55B462146179A059800F09FF9054402
:1056A00004E030205A46179990476D1C0099481E17
:1056B00000900029F5DC08E0029802995A4600782B
:1056C000491C0291179990476D1CBAF10001AAF18B
:1056D000010AF1DC65E100000928010030313233B4
:1056E000343536373839616263646566000000001E
:1056F0003031323334353637383941424344454608
:105700000000000000F058F90544761C30780028AD
:105710007FF4ECAD19B02846BDE8F08F620700D4E5
:10572000062709F1070222F0070CFCE80223E146F4
:1057300003F000485FEA080C02D00FF2702C0DE075
:105740005FEA045C02D50FF2682C07E05FEAC47CD4
:1057500002D00FF2602C01E0AFF2700C4FF0FF3876
:1057600023F00043CDF850C065280CD006DC452856
:1057700009D046281DD047283DD13DE0662818D0E5
:1057800067287ED138E00021112F01DB112000E0D5
:10579000781CCDE9000106A90EA8FFF7D5FCDDE9CC
:1057A0000F010E9A03910021009207F1010A049162
:1057B0004DE04FF000400097CDE9011006A90EA87A
:1057C000FFF7C2FCDDE90F0203920E9B1199002244
:1057D000DDF80CA00093049211B9791C00EB010ACA
:1057E000B7EB0A0004D4C0F1FF3007F1010A0490BE
:1057F000AAEB0700019044E0012F00DA0127002105
:10580000112F01DD112000E03846CDE9000106A985
:105810000EA8FFF799FCDDE90F010E9A0391002114
:1058200004910092BA4621070CD40399514500DA3D
:105830008A46BAF1010F05DD009AAAF10101515C17
:10584000302908D0B84202DA10F1040F06DA01213B
:10585000CDE9011015E0AAF10101E9E7002805DC16
:10586000049901440491AAEB000102E0411C514556
:1058700000DD8A460499401A401C01904FF0004018
:105880000290200704D40198504501DBCDF8048034
:1058900000208DF84F0002980DF14F07B0F1004F36
:1058A00025D02B200E9002984FF0020800280CDA29
:1058B000404202902D200E9007E00A210298FAF74C
:1058C000D9FD3031029007F8011DB8F10001A8F1AF
:1058D0000108F2DC02980028EFD1791E0E980870BA
:1058E000307800F0200040F0450007F8020D12A8C3
:1058F000C01B00F107081498007800B1012000EBEC
:105900000A01019801EBE07105984144401A401EDC
:105910000590E00306D45B462146179A059800F0EF
:105920005DF805441498007818B15A4617999047C5
:105930006D1CE00324D55B462146179A059800F0BC
:105940004DF805441CE00498002807DBDDE903015D
:10595000884203DD0098405C179901E017993020D8
:105960005A469047049805F10105401C049001989F
:10597000401E019004D12E205A46179990476D1C65
:10598000BAF10001AAF1010ADDDC05E017F8010B0C
:105990005A46179990476D1CB8F10001A8F101080B
:1059A000F4DC5B462146179A0598ABE62D00000013
:1059B0002B000000200000002DE9F04104460025E6
:1059C0001E461746880404D405E039462020B04717
:1059D0006D1C641EF9D52846BDE8F0812DE9F04123
:1059E000044600251E469046C80301D5302700E036
:1059F0002027880404D505E041463846B0476D1C91
:105A0000641EF9D52846BDE8F0810A68531C0B6076
:105A100010707047054A914202D0054A914201D167
:105A2000FDF730BC4FF0FF3070470000A4000020AD
:105A3000A80000202DED028BB6B0FCF72DF8F94838
:105A40000025016841F400310160016801F4003172
:105A50000091016841F480210160006800F4802019
:105A60000090FEF7B1F8FDF7D3FEF04EEE484FF48C
:105A700080493060EE48C6E90105C6E90359756101
:105A8000B561F56130463562FBF7C6FCE548103874
:105A9000016841F4001101600068002200F4001068
:105AA000009011460C20FCF757F80C20FCF746F844
:105AB000002211461020FCF74FF81020FCF73EF8AA
:105AC000DC4806F154044FF4165801C40C27E4E8EE
:105AD000068506F1540044F8105C44E9035744F885
